:020000040800F2
:1000000008060020350100089B1600088112000830
:1000100099160008C9010008051E0008000000002C
:10002000000000000000000000000000C1170008F0
:10003000CB01000800000000BD160008C31700082F
:100040004F0100084F0100084F0100084F01000850
:100050004F0100084F0100084F0100084F01000840
:100060004F0100084F0100084F0100084F01000830
:100070004F0100084F0100084F0100084F01000820
:100080004F0100084F0100084F0100080000000068
:100090000000000000000000000000004F01000808
:1000A0004F0100084F0100084F0100084F010008F0
:1000B0004F0100084F0100084F0100084F010008E0
:1000C0004F0100084F0100084F0100084F010008D0
:1000D0004F0100084F0100084F0100084F010008C0
:1000E0004F0100084F0100084F0100080000000008
:1000F0000000000000000000000000000000000000
:1001000000000000000000000000000000000000EF
:1001100000000000000000004F0100084F0100082F
:10012000DFF80CD000F018F800480047251E000842
:10013000080600200648804706480047FEE7FEE71D
:10014000FEE7FEE7FEE7FEE7FEE7FEE7FEE7FEE787
:100150004118000821010008064C074D06E0E06840
:1001600040F0010394E8070098471034AC42F6D3FE
:10017000FFF7DAFFC4200008E420000870B5044649
:1001800000688168C943C9071CD1816821F0010159
:10019000816000F041FA05460FE000BF00F03CFA34
:1001A000401B022809D9A06A40F01000A062E06A52
:1001B00040F00100E062012070BD20688068C0430B
:1001C000C007EBD0002070BDFEE77047F8B50024F3
:1001D000009490F824202546012A12D0012280F8AC
:1001E00024204A681F23072A0DD20668776B521E07
:1001F00002EB820293409F430B6893401F43776357
:1002000019E00220F8BD06680D2A0AD2376BD21F0A
:1002100002EB820293409F430B6893401F43376376
:1002200009E0F76A0D3A02EB820293409F430B68A4
:1002300093401F43F7620A68072306680A2A0AD315
:10024000F7680A3A02EB420293409F438B6893405F
:100250001F43F76008E0376902EB420293409F4377
:100260008B6893401F4337610A68102A01D0112A16
:1002700020D1124B02689A4217D193681B0219D4FD
:10028000936843F4000393600968102912D10C4964
:100290000C4A0968B1FBF2F101EB8101490000E071
:1002A000491E00910029FBD104E0816A41F0200140
:1002B0008162012480F824502046F8BD00240140CA
:1002C0000000002040420F002DE9F0414FF00007F0
:1002D00004003D467ED0A06A002628B9E66284F874
:1002E0002460204600F07EF82046FFF747FFA16A11
:1002F000C90600D420B1A06A40F01000A06269E0F5
:10030000A16A21F4885141F00201A1626268E169A9
:10031000E3680A4347EA43010A43A1684FF4807740
:10032000B94209D0012907D05FF00001D4F814C008
:10033000BCF1010F02D00AE03946F7E7F3B1A36A36
:1003400043F02003A362E36A43F00103E3622368FE
:10035000D3F804C02CF4694C4CEA010CC3F804C077
:1003600021688B68DFF870C003EA0C0313438B60CD
:10037000A168B9420BD0012909D00CE0DFF85CC0BC
:10038000A3690CEB43330B4343F40061DFE7218A9D
:100390000D05A5F580152168CB6A23F470032B4366
:1003A000CB62216889680E4B1940914208D1E66200
:1003B000A16A21F0020141F00101A162BDE8F081D2
:1003C000A06A20F0020040F01000A062E06A40F055
:1003D0000100E0620120F1E7FDF7E1FF00E0FFFF2F
:1003E000FE0E1FFF00B500680B4985B0884210D192
:1003F0000A48816941F4007181618069694600F4AD
:10040000007004900120009003200190044800F047
:100410001BF805B000BD00000024014000100240A0
:100420000008014070B5044600F0F6F80546601C6F
:1004300002D004480078044400F0EEF8401BA042CB
:10044000FAD370BD040000202DE9F84FDFF890A129
:1004500000220AF1040B144601274FF00F090BF19B
:10046000040E00BF0B6807FA04F52B40AB4274D1B1
:10047000DFF870C14E68A6EB0C0866452BD00DDC8A
:10048000032E34D005DC36B3012E19D0022E2FD125
:100490001BE0112E16D0122E2AD119E0B8F5881FB4
:1004A00019D006DCB8F5803F15D0B8F5801F1FD1F4
:1004B00011E0B8F5001F0ED0B8F5041F18D10AE0FE
:1004C000CA6815E0CA68121D12E0CA6808320FE057
:1004D000CA680C320CE08A682AB1012A4FF008027F
:1004E00003D0456104E0042202E0056100E000223F
:1004F000FF2B01D8064601E000F104064FEA84050F
:1005000001D9A5F12005D6F800C009FA05F82CEAB2
:10051000080C02FA05F54CEA050CC6F800C04D6857
:10052000ED0057D5304DAE6946F00106AE61AD69BC
:1005300024F0030605F0010500952C4D06EB050C93
:10054000DCF80850A6074FEA167809FA08F6B54312
:10055000274EB04202D1002610E03BE0254EB042CB
:1005600001D101260AE0244EB04201D1022605E065
:10057000224EB04201D1032600E0042606FA08F616
:100580002E43CCF808604D68DAF80060ED0355465C
:1005900001D51E4300E09E432E604D68DBF80060ED
:1005A000AD035D4601D51E4300E09E432E604D68BD
:1005B000DEF80060ED02754601D51E4300E09E4363
:1005C0002E604D68AD020E4D2E6801D51E4300E031
:1005D0009E432E60641C102CFFF444AFBDE8F88FDE
:1005E0000004014000001110001002400000014012
:1005F00000080140000C01400010014000140140BF
:100600000C0401408068084000D0012070470AB106
:10061000016170470904FBE70148806870470000EA
:10062000040000200248816802781144816070470C
:100630000400002010B5032000F088F8002000F02E
:1006400005F800F023F8002010BD000070B50D4D36
:1006500004464FF47A712878B1FBF0F00A49096832
:10066000B1FBF0F000F063FB48B9102C07D2002278
:100670002146501E00F04AF800206C6070BD012039
:1006800070BD000004000020000000201D4808B5D7
:10069000816941F001018161806900F001000090F1
:1006A000032000F053F8002211466FF00B0000F019
:1006B0002DF8002211466FF00A0000F027F8002202
:1006C00011466FF0090000F021F800221146501F7A
:1006D00000F01CF800221146101F00F017F800224D
:1006E0001146901E00F012F800221146501E00F034
:1006F0000DF80548416821F0E06141F0007141606A
:1007000008BD00000010024000000140F0B40E4B94
:100710001B680C46C3F30223C3F10705042D00D95F
:100720000425191D072901D2002300E0DB1E012644
:1007300006FA05F1491E214099409E40761E16405A
:100740003143F0BC00F0AABF0CED00E0064900F018
:10075000070208684FF6FF03184040EA0220034AE8
:1007600010430860704700000CED00E00000FA053F
:100770002DE9F84305460078314CC00754D0E069B4
:100780000026C00008D4E06940F08050E061E069D4
:10079000012600F0805000902A480168C90512D453
:1007A0000168804641F480710160FFF735FF07461C
:1007B00005E000BFFFF730FFC01B642823D8D8F83E
:1007C0000000C005F6D5206A10F4407021D0A98839
:1007D00001F4407181421CD0206A1B49012220F49F
:1007E00040700A6000220A602062C00711D0FFF743
:1007F00013FF074641F2883808E000BFFFF70CFFFF
:10080000C11B414502D90320BDE8F883206A800757
:10081000F4D5206A696820F44070084320621EB154
:10082000E06920F08050E0612878800705D5606895
:10083000A96820F44040084360600020E4E700001D
:100840000010024000700040400442422DE9F04197
:1008500005460078394C800705D56068A96820F006
:10086000F000084360602878C00744D06868012819
:1008700004D02168022804D0890703E02168890395
:1008800000E08901002902DB0120BDE8F0816168F8
:1008900021F0030101436160FFF7BEFE074668686F
:1008A00041F28836012808D0022812D01FE000BF8C
:1008B000FFF7B2FEC01BB04217D86068C0F38100DA
:1008C0000128F5D117E000BFFFF7A6FEC01BB0421C
:1008D0000BD86068C0F381000228F5D10BE000BF9F
:1008E000FFF79AFEC01BB04201D90320CDE7606834
:1008F00010F00C0FF4D12878400705D56068E9683E
:1009000020F4E060084360602878000706D560683E
:10091000296920F4605040EAC100606000F03AF8B4
:100920006168074AC1F30311515CC840054908607A
:100930000020FFF78BFE0020A7E700000010024018
:10094000AC2000080000002001480068704700004B
:10095000000000200448054900684968044AC1F3C2
:100960000221515CC8407047000000200010024086
:10097000BC2000080448054900684968044AC1F3DE
:10098000C221515CC84070470000002000100240A6
:10099000BC20000813A188B00FC98DE80F0015A175
:1009A0000DF1100C0FC98CE80F00164A516816485B
:1009B00001F00C03042B10D0082B0ED1C1F383439C
:1009C000C9031DF803000AD5D16A04AA01F00F017A
:1009D000515C0D4A5043B0FBF1F008B070470B4931
:1009E0004843FAE702030405060708090A0B0C0D41
:1009F0000E0F10100102030405060708090A0B0C6C
:100A00000D0E0F100010024000127A0000093D0088
:100A10002DE9F84F04460078B94DC00748D0686802
:100A2000C0F38100012807D06868C0F38100022864
:100A300009D16868C00306D52868800338D5606886
:100A400000286FD034E06068B0F5803F0BD010B163
:100A5000B0F5A02F11D0286820F4803028602868D5
:100A600020F4802002E0286840F48030286060682C
:100A700088B1FFF7D1FD064609E0286840F48020E0
:100A80002860F0E7FFF7C8FD801B642875D8286848
:100A90008003F7D50CE0FFF7BFFD064605E000BF79
:100AA000FFF7BAFD801B6428F0D828688003F7D4CC
:100AB0002078944E80074FF001094FF000083BD595
:100AC000686810F00C0F07D06868C0F38100022836
:100AD00009D16868C00306D42868800714D5206946
:100AE00001281FD110E02069B0B1C6F80090FFF7CF
:100AF00093FD074605E000BFFFF78EFDC01B0228EF
:100B0000C4D828688007F7D52868616920F0F80004
:100B100040EAC10028600FE0C6F80080FFF77CFDC6
:100B2000074606E0E9E000BFFFF776FDC01B02289C
:100B300023D828688007F7D4207800072CD572487E
:100B4000A169D9B1C0F80090FFF766FD074604E03F
:100B5000FFF762FDC01B02280FD8686A8007F7D52F
:100B60006A484FF4FA510068B0FBF1F0009000BF02
:100B70000098411E0091FAD20EE080E0C0F800809B
:100B8000FFF74AFD074604E0FFF746FDC01B0228B9
:100B900075D8686A8007F7D42078400760D5E8697F
:100BA0000027C00008D4E86940F08050E861E86997
:100BB000012700F08050009055480168C90513D402
:100BC0000168834641F480710160FFF725FD82468C
:100BD00006E000BFFFF720FDA0EB0A0064284ED816
:100BE000DBF80000C005F5D5E06801280AD008B19F
:100BF000052813D0286A20F001002862286A20F016
:100C0000040002E0286A40F001002862E06841F236
:100C1000883B98B1FFF700FD82460BE0286A40F060
:100C200004002862EEE700BFFFF7F6FCA0EB0A0124
:100C300059455AD8286A8007F6D50CE0FFF7ECFC36
:100C4000824605E0FFF7E8FCA0EB0A0159454CD8C5
:100C5000286A8007F6D41FB1E86920F08050E86167
:100C6000E06988B36968C1F38101022945D002288F
:100C7000C6F8608004D0FFF7CFFC044638E034E0CB
:100C8000FFF7CAFC074604E0FFF7C6FCC01B0228BA
:100C90002BD828688001F7D4206AB0F5803F05D1B1
:100CA000E86AA16820F00F000843E862D4E908016F
:100CB0000843696821F4741108436860C6F86090BD
:100CC000FFF7AAFC044606E015E000BFFFF7A4FC0E
:100CD000001B022809D828688001F7D50BE000BF67
:100CE000FFF79AFC001B022802D90320BDE8F88F09
:100CF00028688001F4D40020F8E70120F6E700001E
:100D000000100240000042428004424200000020E5
:100D1000007000404FF0E0210428086903D020F063
:100D200004000861704740F00400FAE7704710B50E
:100D3000401EB0F1807F01D3012010BD4FF0E024B0
:100D400060610F21601700F0A9FC0020A06107205E
:100D50002061002010BD10B5FFF7E8FF10BD10B5F1
:100D600090F83C20012A25D0012280F83C20CA6856
:100D70008C6822F4407222434C6822F48062224341
:100D80000C6822F4006222430C6922F48052224350
:100D90004C6922F4005222438C6922F4804222439F
:100DA00022F40041026800232143516480F83C3062
:100DB000002010BD022010BD30B590F83C20012A63
:100DC00020D0012280F83C20022380F83D300368C7
:100DD0005C6824F070045C6003685C680D682C43F8
:100DE0005C6003689C6824F080049C6003689C68D5
:100DF00049680C439C6080F83D20002180F83C103D
:100E0000084630BD022030BD10B5040003D094F870
:100E10003D0010B107E0012010BD002084F83C0027
:100E2000204600F00DF8022084F83D00211D2068C6
:100E300000F02CFD012084F83D00002010BD0000D2
:100E400008B50C4A01680C48914207D1C16941F0CC
:100E50000201C161C06900F0020009E0074A914245
:100E600007D1816941F400318161806900F400306B
:100E7000009008BD00040040001002400044014002
:100E800070B5044690F83C00012817D0012584F87D
:100E90003C50022084F83D002068826822F07702EE
:100EA00022F47F4282600868502837D00DDC202869
:100EB00059D005DC88B3102841D151E0022070BD23
:100EC000302853D040283AD13FE060282ED07028F7
:100ED0000BD0B0F5805F03D0B0F5005F2FD110E0EC
:100EE0002068816821F0070115E0CB68D1E9012174
:100EF000206800F017FD2168886840F0770088605E
:100F00001DE0CB68D1E90121206800F00BFD2068CD
:100F1000816841F48041816011E01EE0CA6849683F
:100F2000206800F0FBFD5021206806E0CA6849688F
:100F3000206800F004FE6021206800F0FDFC84F8C9
:100F40003D50002084F83C0070BDCA6849682068A4
:100F500000F0E4FD40212068EFE700212068ECE785
:100F600010212068E9E720212068E6E73021206889
:100F7000E3E700001FB502682A4802212A4C82429A
:100F80000FD14015CDE90001039169462748FFF7CD
:100F90005BFA606820F0C00040F0E06040F0C00004
:100FA00017E02348B2F1804F04D0224B9A4212D16D
:100FB000402225E04FF40042CDE90021039169462B
:100FC000FFF742FA606820F4407040F0E06040F4BF
:100FD000807060601FBD184B9A420DD19014CDE90E
:100FE0000001039169461548FFF72EFA606840F04A
:100FF000E06040F48050ECE7114B9A4207D10422A4
:10100000CDE9002103916946FFF71EFA1FBD0D4887
:101010008242FBD18015CDE90001039169460A485F
:10102000F2E70000002C01400000014000180140E0
:101030000008014000040040000800400014014086
:101040000040014000440140000C014070B50446DE
:1010500090F83C000D4601280DD0012684F83C6034
:10106000022084F83D0042B1042A18D0082A2AD070
:101070000C2A4DD139E0022070BD206800F064FCDC
:101080002068816941F0080181612068816921F04F
:1010900004018161206881692A69114311E0206897
:1010A00000F092FC2068816941F400618161206850
:1010B000816921F480618161206881692A6941EA3E
:1010C0000221816124E0206800F0BAFC2068C16937
:1010D00041F00801C1612068C16921F00401C161CA
:1010E0002068C1692A69114311E0206800F0E4FC1E
:1010F0002068C16941F40061C1612068C16921F4BF
:101100008061C1612068C1692A6941EA0221C16127
:1011100084F83D60002084F83C0070BD10B50400E8
:1011200003D094F83D0010B107E0012010BD00206D
:1011300084F83C00204600F00DF8022084F83D00C1
:10114000211D206800F0A2FB012084F83D00002052
:1011500010BD000008B5174A01681748914207D131
:10116000816941F400618161806900F4006014E0EC
:10117000B1F1804F0AD0114A914210D1C16941F0BA
:101180000401C161C06900F0040006E0C16941F0DA
:101190000101C161C06900F00100009008BD084A6A
:1011A0009142FBD1816941F480318161806900F411
:1011B0008030F2E7002C014000100240000800409F
:1011C0000040014070B5040004D094F839000025B7
:1011D00010B106E0012070BD84F83850204600F0C0
:1011E00023F8242084F839002068C16821F40051D4
:1011F000C160204600F0B6FC2068016921F49041EE
:1012000001612068416921F02A0141612068C168BB
:1012100041F40051C160E563202084F8390084F86E
:101220003A00002070BD000010B50068114986B07A
:1012300088421DD11048816941F4804181618069F3
:101240000E4C00F4804004904FF400700090022097
:1012500001900320039069462046FFF7F5F800212E
:101260002015CDE90001029169462046FFF7ECF810
:1012700006B010BD003801400010024000080140D7
:10128000FEE700003EB50F4800240D498460C460AD
:1012900044610160012505614FF460214460C16132
:1012A000FFF712F800B1FEE7CDE9004569460548B1
:1012B0000294FEF78BFF002800D0FEE73EBD000041
:1012C00000240140140000202DE9F04F454885B06E
:1012D000816941F040018161816901F0400104911F
:1012E000816941F010018161816901F0100104916F
:1012F000816941F004018161816901F00401049177
:10130000816941F008018161816901F0080104915E
:10131000816941F0200181618069DFF8CC9000F0A3
:1013200020004FF47C470490002239464846FFF7DE
:101330006EF9DFF8B8A0002239465046FFF767F98A
:10134000DFF8ACB04FF44078002241465846FFF732
:101350005EF900244FF4F070CDE900046946484678
:101360000294FFF771F84FF6FF70CDE9000469466B
:1013700020480294FFF768F841F6BA10CDE900045E
:1013800069461D480294FFF75FF840F2FF20CDE95F
:101390000004694650460294FFF756F80125CDE94E
:1013A00000750226694648460396FFF74DF8CDE9D9
:1013B0000075694650460396FFF746F8CDE900856B
:1013C000694658460396FFF73FF84EF6FF40CDE9D1
:1013D0000004694658460294FFF736F805B0BDE8A8
:1013E000F08F00000010024000180140000C014086
:1013F00000140140001001400008014010B51E48D3
:1014000090B01C490024C0E900148460C4600461E9
:1014100044618461FFF782FE00B1FEE70E940EA9DD
:1014200015480F94FFF7C8FC00B1FEE76020CDE936
:1014300000040294039404940594002269460E4823
:101440000694FFF703FE00B1FEE7079408940994A1
:101450004FF400500A94CDE90B4007A906480D94BB
:10146000FFF77DFC00B1FEE70348FFF783FD10B0F6
:1014700010BD0000004001404401002010B51C4890
:101480008EB01A490024C0E900148460C46004616D
:1014900044618461FFF7B8FC00B1FEE71448FFF730
:1014A0003DFE00B1FEE76020CDE900040294039404
:1014B00004940594002269460D480694FFF7C6FD82
:1014C00000B1FEE70794089409944FF400500A9481
:1014D000CDE90B4007A906480D94FFF740FC00B189
:1014E000FEE70348FFF746FD0EB010BD0044014083
:1014F0008401002010B51E4890B01C490024C0E9AA
:1015000000148460C460046144618461FFF706FED6
:1015100000B1FEE70E940EA915480F94FFF74CFC9E
:1015200000B1FEE76020CDE9000402940394049426
:101530000594002269460E480694FFF787FD00B126
:10154000FEE70794089409944FF400500A94CDE9FB
:101550000B4007A906480D94FFF701FC00B1FEE718
:101560000348FFF707FD10B010BD0000002C01403C
:101570004400002010B514488AB04FF08041002488
:10158000C0E900148460C46004618461FFF7C6FD93
:1015900000B1FEE7079407A90B480894FFF70CFC7D
:1015A00000B1FEE76020CDE9000402940022694604
:1015B00005480494FFF74AFD00B1FEE70248FFF733
:1015C000D9FC0AB010BD00008400002010B51B48F3
:1015D0008EB019490024C0E900148460C46004611D
:1015E0008461FFF711FC00B1FEE74FF480500790D3
:1015F00007A91248FFF744FC00B1FEE70F48FFF7C8
:101600008DFD00B1FEE70B940BA90C480C94FFF77D
:10161000D3FB00B1FEE76020CDE900040294002274
:10162000694606480494FFF711FD00B1FEE7034840
:10163000FFF7A0FC0EB010BD00040040C400002065
:1016400010B514488AB012490024C0E9001484601F
:10165000C46004618461FFF761FD00B1FEE7079497
:1016600007A90C480894FFF7A7FB00B1FEE760202C
:10167000CDE9000402940022694606480494FFF76D
:10168000E5FC00B1FEE70348FFF774FC0AB010BDAB
:101690000008004004010020FEE770470907090E1A
:1016A000002806DA00F00F0000F1E02080F8141D99
:1016B000704700F1E02080F8001470477047000088
:1016C00000224FF400610148FEF7A1BF000C014069
:1016D0000122D1020148FEF79ABF0000000C014030
:1016E00000224FF480610148FEF791BF000C0140D9
:1016F000012291020148FEF78ABF0000000C014060
:1017000000224FF400410148FEF781BF001801405C
:101710000122D1030148FEF77ABF00000018014002
:1017200000224FF480410148FEF771BF00180140CC
:10173000012291030148FEF76ABF00000018014032
:1017400000224FF400510148FEF761BF001801402C
:10175000012251030148FEF75ABF00000018014062
:1017600000224FF480510148FEF751BF001801409C
:10177000012211030148FEF74ABF00000018014092
:1017800000224FF400610148FEF741BF00180140FC
:101790000122D1020148FEF73ABF000000180140C3
:1017A00000224FF480610148FEF731BF001801406C
:1017B000012291020148FEF72ABF000000180140F3
:1017C000704710B5FEF72EFFBDE81040FFF7C3BA13
:1017D00030B593B0022401200490009410200590AD
:1017E00000250004CDE9085007946846FFF710F97A
:1017F00000B1FEE70AA90F2081E831000D95002114
:101800000AA80E95FFF722F800B1FEE70FA8119580
:101810000F94FEF7ADFF00B1FEE7FFF795F84FF428
:101820007A71B0FBF1F0FFF782FA0420FFF772FA49
:1018300000221146501EFEF769FF13B030BD0000B4
:101840000E48016841F00101016041680C4A1140F5
:10185000416001680B4A11400160016821F4802158
:101860000160416821F4FE0141604FF41F01816075
:101870000021C1620449C0030860704700100240A3
:101880000000FFF8FFFFF6FE08ED00E0F0B502688B
:101890001E4B1F4C1F4D4FF0804E984205D0704597
:1018A00003D0A04201D0A84203D122F070064A68BA
:1018B0003243194E194FDFF868C098420BD070457B
:1018C00009D0A04207D0A84205D0B04203D0B84208
:1018D00001D0604503D122F44074CA68224322F04B
:1018E00080044A69224302608A68C2620A6882628E
:1018F000984205D0B04203D0B84201D0604501D132
:101900000969016301214161F0BD0000002C014023
:101910000004004000080040004001400044014035
:101920000048014010B5846842EA032224F47F4451
:101930000A432243826010BD826822F070020A438B
:1019400042F0070181607047F0B5026A22F001029F
:101950000262036A42688469184E24F073050C68B9
:10196000174F2C4323F002058B68DFF858C02B4338
:10197000114DA84205D0B04203D0B84201D0604515
:1019800006D123F0080ECB6843EA0E0323F00403CC
:10199000A84205D0B04203D0B84201D0604505D17D
:1019A0004D6922F4407215438A692A43426084617A
:1019B000496841630362F0BD002C014000400140D2
:1019C000004401400048014030B5026A22F0100294
:1019D0000262026A436884690D6824F4E64444EABA
:1019E00005248D6822F0200242EA0512104DA8421B
:1019F00007D1CD6822F0800242EA051222F04002AF
:101A000008E00C4DA84205D00B4DA84202D00B4D6A
:101A1000A84207D14D6923F4406343EA85038D69E9
:101A200043EA85034360846149688163026230BD93
:101A3000002C0140004001400044014000480140AA
:101A400030B5026A22F480720262036A4268C46995
:101A500023F4007324F073050C682C438D6843EA6B
:101A60000523114DA84207D1CD6823F4006343EA52
:101A7000052323F4806308E00C4DA84205D00C4DEB
:101A8000A84202D00B4DA84207D14D6922F4405222
:101A900042EA05128D6942EA05124260C461496852
:101AA000C163036230BD0000002C014000400140D2
:101AB000004401400048014030B5026A22F48052DF
:101AC0000262046A4268C3690D6823F4E64343EA8C
:101AD00005238D6824F4005444EA05340B4DA842D4
:101AE00008D00B4DA84205D00A4DA84202D00A4D9D
:101AF000A84204D14D6922F4804242EA8512426034
:101B0000C36149680164046230BD0000002C0140DB
:101B100000400140004401400048014010B5036A04
:101B2000046A24F001040462846924F0F00444EAA5
:101B3000021423F00A020A438461026210BD10B548
:101B4000036A23F0100303628369046A23F4704379
:101B500043EA023224F0A00343EA011182610162E8
:101B600010BD00002DE9F041044600680169E268FB
:101B700021F44051114301612169A068E2690843E1
:101B80006169114322680843D16849F20C639943A3
:101B90000143D16020684169A26921F44071114379
:101BA0004161E1696425B1F5004F954821684FF026
:101BB00032083DD081427AD1FEF7DCFE00EBC00155
:101BC00001EB001061688900B0FBF1F6FEF7D2FE70
:101BD00000EBC00101EB001061688900B0FBF1F07F
:101BE000B0FBF5F06FF01801484306EB800108EBFD
:101BF0000110B0FBF5F000F0F006FEF7BBFE00EBC5
:101C0000C00101EB001061688900B0FBF1F0B0FB8E
:101C1000F5F006EB0016FEF7ADFE00EBC00101EBA0
:101C2000001061688900B0FBF1F7FEF7A3FED0E079
:101C300081423DD1FEF79EFE00EBC00101EB00109A
:101C400061684900B0FBF1F0B0FBF5F00601FEF76A
:101C500091FE00EBC00101EB001061684900B0FB90
:101C6000F1F7FEF787FE00EBC00101EB00106168A1
:101C70004900B0FBF1F0B0FBF5F06FF018014843FC
:101C800007EB800108EBC100B0FBF5F000F0F800B5
:101C900006EB4006FEF76EFE00EBC00101EB001004
:101CA00061684900B0FBF1F7FEF764FE3CE055E0E7
:101CB000FEF750FE00EBC00101EB00106168490027
:101CC000B0FBF1F0B0FBF5F00601FEF743FE00EBD0
:101CD000C00101EB001061684900B0FBF1F7FEF7AD
:101CE00039FE00EBC00101EB001061684900B0FB58
:101CF000F1F0B0FBF5F06FF01801484307EB8001FD
:101D000008EBC100B0FBF5F000F0F80006EB400670
:101D1000FEF720FE00EBC00101EB001061684900F6
:101D2000B0FBF1F7FEF716FE00EBC00101EB00106F
:101D300061684900B0FBF1F0B0FBF5F06FF01801FD
:101D4000484307EB800108EBC100B0FBF5F000F061
:101D50000700216830448860BDE8F081FEF7FAFD95
:101D600000EBC00101EB001061688900B0FBF1F6E7
:101D7000FEF7F0FD00EBC00101EB00106168890087
:101D8000B0FBF1F0B0FBF5F06FF01801484306EB43
:101D9000800108EB0110B0FBF5F000F0F006FEF753
:101DA000D9FD00EBC00101EB001061688900B0FBB8
:101DB000F1F0B0FBF5F006EB0016FEF7CBFD00EB03
:101DC000C00101EB001061688900B0FBF1F7FEF77C
:101DD000C1FD00EBC00101EB001061688900B0FBA0
:101DE000F1F0B0FBF5F06FF01801484307EB80010C
:101DF00008EB0110B0FBF5F000F00F00A9E70000C0
:101E000000380140FEE702E008C8121F08C1002A9E
:101E1000FAD170477047002001E001C1121F002A6B
:101E2000FBD17047FEF706FCFFF7D2FCFFF74CFA38
:101E3000FFF728FAFFF75EFBFFF79CFBFFF7C6FBF7
:101E4000FFF7FEFBFFF7DAFAFFF718FB134812491A
:101E50000C2201604FF4E131416000218160C160DA
:101E6000C0E904128161C161FFF7ACF900B1FEE77E
:101E70000B4C4FF47A7520212046FEF7C3FB20213E
:101E80002046FEF7BFFB18B900F00CF800F0C0F8D0
:101E90002846FEF7C7FAEEE700380140C4010020EB
:101EA0000018014070B5554C4FF0FF30544D206084
:101EB0004FF480712846FEF7A5FB216821EAC04057
:101EC000206080212846FEF79DFB21684D4E21EAC7
:101ED0008040206004213046FEF794FB216821EA0F
:101EE0004040206002213046FEF78CFB216821EA49
:101EF0000040206001213046FEF784FB2168424EFD
:101F000021EAC030206020213046FEF77BFB2168AB
:101F100021EA8030206002213046FEF773FB216801
:101F200021EA4030206001213046FEF76BFB21683A
:101F300021EA003020604FF400413046FEF762FB9A
:101F4000216821EAC02020604FF480413046FEF72E
:101F500059FB216821EA8020206069143046FEF791
:101F600051FB216821EA4020206040212846FEF7ED
:101F700049FB216821EA0020206010213046FEF74D
:101F800041FB2168214D21EAC010206080212846B4
:101F9000FEF738FB216821EA8010206020212846C6
:101FA000FEF730FB216821EA40102060102128460E
:101FB000FEF728FB216821EA00102060082128464E
:101FC000FEF720FB216821EAC0002060022128469C
:101FD000FEF718FB216821EA8000206008213046C6
:101FE000FEF710FB216821EA400020600421304602
:101FF000FEF708FB21688143216070BD10000020BE
:1020000000180140000C0140001001400008014090
:1020100010B5254C2078C00702D0FFF7C9FB01E0BE
:10202000FFF7BEFB20784008C00702D0FFF7B0FBE7
:1020300001E0FFF7A5FB20788008C00702D0FFF77A
:1020400097FB01E0FFF78CFB2078C008C00702D0A7
:10205000FFF77EFB01E0FFF773FB20780009C00764
:1020600002D0FFF765FB01E0FFF75AFB207840093B
:10207000C00702D0FFF74CFB01E0FFF741FB2078DF
:102080008009C00702D0FFF733FB01E0FFF728FB10
:102090002078C009C00703D0BDE81040FFF718BB87
:1020A000BDE81040FFF70CBB10000020000000004E
:1020B00000000000010203040607080900000000F8
:1020C00001020304E42000080000002014000000C6
:1020D000061E0008F820000814000020F405000087
:1020E000161E000800366E010100000010000000FE
:0820F00000000000FFFFFFFFEC
:0400000508000121CD
:00000001FF
